S019000044464C4C5F34384D487A5F53414D4C32312E7372656320
S11300002020002025010000210100002101000022
S113001000000000000000000000000000000000DC
S113002000000000000000000000000021010000AA
S11300300000000000000000210100002101000078
S11300402101000021010000210100002101000024
S11300502101000021010000210100002101000014
S11300602101000021010000210100002101000004
S113007021010000210100002101000021010000F4
S113008021010000210100002101000021010000E4
S113009021010000210100002101000021010000D4
S11300A021010000210100002101000021010000C4
S11300B00000000010B5064C2378002B07D1054B37
S11300C0002B02D0044800E000BF0123237010BDC0
S11300D000000020000000000C050000084B10B5D3
S11300E0002B03D00749084800E000BF0748036815
S11300F0002B00D110BD064B002BFBD09847F9E72D
S113010000000000040000200C0500000C050000A5
S11301100000000010B5014B984710BDD10100004C
S1130120FEE7000010B51A4A1A4B9A4211D01A0081
S1130130194B9A420DD2194A03339B1A9B08013377
S11301409B000022134812498C58845004329A426E
S1130150FAD1134A134B9A420AD2D34311495B187A
S113016003218B4304339B18002102C29342FCD128
S11301700D4AFF210D4B8B4393600D4A53687F3921
S11301800B4353600B4B98470B4B9847FEE7C04615
S11301900C050000000000200000002004000020E6
S11301A0000000202000002000ED00E0000000001E
S11301B000400041A50400008104000010B502487D
S11301C0024B984710BDC04610E000E01502000045
S11301D010B50C4B9847C023DB058022D200942134
S11301E05A500C395A50084BA82208499950C0213A
S11301F009069950CA215A5C012082435A54044B7F
S1130200984710BD5502000000280040000400403B
S1130210BD01000010B5024B1860024B984710BD99
S11302201C0000201904000010B5044B1C68044B8A
S1130230984701002000034B984710BD1C00002084
S1130240490200002D040000014B58437047C0468A
S113025080BB000010B50B4A536802210B43536066
S11302600220094B9847094B9847094B9847094B7B
S113027098470820084CA047084B9847F720A04708
S113028010BDC04600400041ED030000F102000033
S11302900D030000DD020000A10200004503000080
S11302A0C30707D5094A0A4B1A621900094A4B6861
S11302B01342FCD1030707D5074A054BDA6219003C
S11302C0044A4B681342FCD17047C0460701010041
S11302D000180040FD07000005010100034B08223F
S11302E09A71043A5A71033A1A7170470004004033
S11302F0054B8E225A61DA69F82149010A40DA6114
S113030001221A617047C0460010004082220C4B43
S11303101A7518003821803A435C1342FCD108490D
S11303201022CB681A42FCD0054A137D80210B436E
S11303301375100048390E22435C1342FCD17047F8
S1130340000C004010B5254B1C68A40E0222244B5F
S11303501A8318003821435C1342FCD120498022BF
S11303605200CB681342FCD01E4A1D4B1A6219007E
S113037080225200CB681342FCD0A40280239B004D
S11303802343174AD3610223138310003821022226
S1130390435C1342FCD1124B1B8B5B0716D51049EF
S11303A090221201CB6813409342FBD10C4A138B69
S11303B080210B431383100048390E22435C1342FF
S11303C0FCD1094A5368002BFCD110BD044980229A
S11303D05200CB681342FCD0E8E7C046206080009E
S11303E0000C004000000104001800408023DB05DD
S11303F09B780322134098420CD08022D205FF231D
S11304009371937803218B43084018439070937938
S1130410002BFCD070470000024B034A5A600522AF
S11304201A60704710E000E0FFFFFF0070B50B0E8C
S11304305E1EF6B2002B13D034000E4A0E4D8020FF
S113044040025560956013680342FCD0013CE4B25D
S1130450FF2CF6D13306F61A084B9C4661447118FA
S1130460044B596099601900802252020B681342B0
S1130470FCD070BD10E000E0FFFFFF00010000FFB2
S1130480F8B5064B9847C027FF059C268025ED004C
S1130490034CBD51FA20A047FBE7C04615010000FC
S11304A02902000070B500260C4D0D4C641BA410ED
S11304B0A64209D1002600F019F80A4D0A4C641B23
S11304C0A410A64205D170BDB300EB58984701367D
S11304D0EEE7B300EB5898470136F2E7F804000062
S11304E0F8040000F8040000FC040000F8B5C0465D
S11304F0F8BC08BC9E467047DD000000F8B5C04655
S10F0500F8BC08BC9E467047B500000023
S9030000FC
