S019000044464C4C5F34384D485A5F53414D4535342E7372656341
S113000030000120E1020000DD020000DD020000FA
S1130010DD020000DD020000DD020000000000003F
S1130020000000000000000000000000DD020000ED
S1130030DD02000000000000DD020000DD0200001F
S1130040DD020000DD020000DD020000DD02000030
S1130050DD020000DD020000DD020000DD02000020
S1130060DD020000DD020000DD020000DD02000010
S1130070DD020000DD020000DD020000DD02000000
S1130080DD020000DD020000DD020000DD020000F0
S1130090DD020000DD020000DD020000DD020000E0
S11300A0DD020000DD020000DD020000DD020000D0
S11300B0DD020000DD020000DD020000DD020000C0
S11300C0DD020000DD020000DD020000DD020000B0
S11300D0DD020000DD020000DD020000DD020000A0
S11300E0DD020000DD02000000000000000000004E
S11300F000000000D9050000DD020000DD02000060
S1130100DD020000DD020000DD020000DD0200006F
S1130110DD020000DD020000DD020000DD0200005F
S1130120DD020000DD020000DD020000DD0200004F
S1130130DD020000DD020000DD020000DD0200003F
S1130140DD020000DD020000DD020000DD0200002F
S1130150DD020000DD020000DD020000DD0200001F
S1130160DD020000DD020000DD020000DD0200000F
S1130170DD020000DD020000DD020000DD020000FF
S1130180DD020000DD020000DD020000DD020000EF
S1130190DD020000DD020000DD020000DD020000DF
S11301A0DD020000DD020000DD020000DD020000CF
S11301B0DD020000DD020000DD020000DD020000BF
S11301C0DD020000DD020000DD020000DD020000AF
S11301D0DD020000DD020000DD020000DD0200009F
S11301E0DD020000DD020000DD020000DD0200008F
S11301F0DD020000DD020000DD020000DD0200007F
S1130200DD020000DD020000DD020000DD0200006E
S1130210DD020000DD020000DD020000DD0200005E
S1130220DD020000DD020000DD020000DD0200004E
S1130230DD020000DD020000DD020000DD0200003E
S1130240DD020000DD020000DD020000DD0200002E
S1130250DD020000DD020000DD020000DD0200001E
S1130260DD02000010B5054C237833B9044B13B1FB
S11302700448AFF300800123237010BD0000002068
S1130280000000001C0700000C4B43B10C480D4952
S113029010B5AFF300800C48036823B910BD0A48B9
S11302A0036833B97047094B002BF7D0BDE8104001
S11302B01847064B002BF5D0184700BF000000007C
S11302C01C070000040000201C07000000000000C0
S11302D008B5014B984708BD8D030000FEE70000F8
S11302E008B51C4B1C4A9A4210D01C4B194A9A421E
S11302F00CD2013B9B1A23F0030304331344164925
S113030051F8040B42F8040B9A42F9D1144B154AE4
S11303109A420AD2013B9B1A23F003030433134489
S1130320002142F8041B9342FBD10F4B0F4A22F0E9
S11303307F029A60D3F8882042F47002C3F88820C0
S1130340BFF34F8FBFF36F8F094B9847094B984703
S1130350FEE700BF000000201C0700000000002092
S1130360300000200000002000ED00E0000000004C
S1130370B50600008D06000008B50248024B9847F8
S113038008BD00BF10E000E0D103000008B50C4B2D
S113039098470C4B4FF48022C3F81421C3F808216A
S11303A04FF08042C3F82821074AC3F8282193F864
S11303B0522102F0FE0283F85221044B984708BDF3
S11303C01104000000800041040000C07903000013
S11303D008B5024B1860024B984708BD1C0000206A
S11303E01D06000010B5044B1C68044B98470146D9
S11303F02046034B984710BD1C0000200504000054
S1130400310600004BF61C3303FB00F0704700007C
S113041010B50A4A13889BB243F480731380084BC7
S11304209847084B9847084B98470820074CA04723
S1130430074B984740F6F770A04710BD00400041B5
S1130440A1040000CD040000950400005504000040
S1130450E904000010F0010F08D00B4A0B4B1A629C
S1130460194643F6FD724B681342FCD110F0080F95
S113047008D0074A054BDA62194643F6FD724B6809
S11304801342FCD1704700BF06010100001C00406C
S1130490050101000122014B5A7170470008004018
S11304A0094B42F20E029A8200229A75DA75DA69D1
S11304B002F47C52DA611A46D36813F0010FFBD0C0
S11304C00122014B1A74704700140040044A054B82
S11304D09A611A46136913F0020FFBD0704700BFEC
S11304E00626000300100040384A136A23F00F0365
S11304F043F004031362114643F6FD724B68134242
S1130500FCD1324A536813F0040FFBD1304B002264
S11305101A7743212D4AC2F880102E4A9A621A464D
S113052092F82C3013F0100FFAD10022284B83F8E4
S113053020201A4692F82C3013F0040FFAD102222C
S1130540234B1A771A4692F82C3013F0020FFAD183
S11305501F4B5A6A5A621A4692F82C3013F0080F4D
S1130560FAD183221A4B83F820201A4692F82C30B1
S113057013F0040FFAD1164B93F8203013F0010F47
S11305801DD0134A136903F41063B3F5106FF9D146
S11305900E4A5368002BFCD10C4A136A23F00F0354
S11305A043F006031362114643F6FD724B6813428F
S11305B0FCD1064A536813F0040FFBD17047044A78
S11305C0136913F4807FFBD0E2E700BF001C0040F6
S11305D000100040B805010400B583B00D4B9B78B2
S11305E0DBB20193019B13F0020F06D00A4B1B6888
S11305F01BB1084A5068984709E0019B13F0010FAA
S113060005D0054B5B6813B1024A5068984703B0A4
S11306105DF804FB0000024120000020034B6FF052
S11306207F425A6005221A60704700BF10E000E064
S11306300B0E03B330B45D1EEDB22846124A6FF0C0
S11306407F4454609460136813F4803FFBD00138F6
S1130650C0B2FF28F5D1A5EB056501F17F41013159
S11306602944094B596099601A46136813F4803F72
S1130670FBD030BC7047044B596099601A4613682C
S113068013F4803FFBD0704710E000E080B5064BC8
S11306909847064F4FF48026FA25054CC7F81C618D
S11306A02846A047FAE700BFD102000000800041BD
S11306B0E503000070B50D4E0D4CA41BA4100025DD
S11306C0A54209D10B4E0C4C00F018F8A41BA41041
S11306D00025A54205D170BD56F82530984701354F
S11306E0EEE756F8253098470135F2E70807000091
S11306F008070000080700000C070000F8B500BF59
S1130700F8BC08BC9E46704789020000F8B500BFDB
S10F0710F8BC08BC9E467047650200005F
S9030000FC
