S019000044464C4C5F34384D485A5F53414D4431312E7372656349
S113000020040020FD000000F9000000F9000000B9
S113001000000000000000000000000000000000DC
S1130020000000000000000000000000F9000000D3
S11300300000000000000000F9000000F9000000CA
S1130040F9000000F9000000F9000000F9000000C8
S1130050F9000000F9000000F9000000F9000000B8
S1130060F9000000F9000000F9000000F9000000A8
S1130070F9000000F9000000F9000000F900000098
S1130080F9000000F9000000F900000010B5064C6A
S11300902378002B07D1054B002B02D0044800E045
S11300A000BF0123237010BD0000002000000000E9
S11300B0D0040000084B10B5002B03D007490848B2
S11300C000E000BF07480368002B00D110BD064BB9
S11300D0002BFBD09847F9E7000000000400002043
S11300E0D0040000D00400000000000010B5014B53
S11300F0984710BDF5010000FEE70000F8B52A4A54
S11301002A4B9A4211D01A00294B9A420DD2294AFD
S113011003339B1A9B0801339B0000222348224986
S11301208C58845004329A42FAD1234A234B9A427F
S11301300AD2D34321495B1803218B4304339B1810
S1130140002102C29342FCD11D4AFF211D4B8B4367
S11301509360FD3990235B001B4AD1501B4AD3782E
S11301600325AB4302242343D370D3780C27BB432A
S113017008263343D370164B987B302290432022B9
S113018010439873997BB943314399739A7BAA437B
S113019022439A730F4A536880210B4353600E4BDA
S11301A098470E4B9847FEE7D0040000000000205B
S11301B00000002004000020000000202000002097
S11301C000ED00E00000000000700041005000411C
S11301D00048004100400041690400004904000057
S11301E010B50248024B984710BDC04610E000E02D
S11301F03502000010B50B4B9847C023DB05802265
S113020052025A619A60084B8022D2059A62074AC8
S11302109A6250215A5C012082435A54044B9847F5
S113022010BDC0467502000000440041010000C03A
S1130230E101000010B5024B1860024B984710BD55
S11302401C000020E103000010B5044B1C68044BA3
S1130250984701002000034B984710BD1C00002064
S113026069020000F5030000014B58437047C04683
S113027080BB000010B5084A536802210B43536049
S1130280064B9847064B98470820064CA047064B58
S113029098473720A04710BD00400041ED02000000
S11302A00D030000AD02000065030000C30709D57B
S11302B00B4B802252009A600A4A5A601A00537803
S11302C0DB09FCD1030709D5054B0422FF329A60F0
S11302D0054A5A601A005378DB09FCD17047C046BE
S11302E0000C00400007010003040100064B1A7AC9
S11302F0D2B21A725A7AD2B25A729A7AD2B29A7222
S1130300DA7AD2B2DA72704700040040124B1A6AE9
S1130310196A12480240890F8907114801430A43A8
S11303201A629A69FE21C9030A4006210A439A61A6
S11303301A7F19310A401A7719000422CB681A422D
S1130340FCD005490822CB681A42FCD0024A136A41
S113035080210B4313627047000800400000FF0F28
S1130360020300008622D201184B5A800222184B45
S11303709A8419000E32CB681A42FCD0154A144BE9
S1130380DA62154B1B689B0E3F2B15D09B02802213
S1130390920013430E4A9362104B9384938C5B0731
S11303A00DD51100D022CB681340D02BFBD1074AC6
S11303B05378DB09FCD17047FC23DB01EAE70449ED
S11303C01022CB681A42FCD0F1E7C046000C004072
S11303D000080040B90501042460800006080000FC
S11303E0024B034A5A6005221A60704710E000E08D
S11303F0FFFFFF0070B50B0E5E1EF6B2002B13D08C
S113040034000E4A0E4D80204002556095601368FA
S11304100342FCD0013CE4B2FF2CF6D13306F61AB9
S1130420084B9C4661447118044B5960996019004B
S1130430802252020B681342FCD070BD10E000E031
S1130440FFFFFF00010000FF70B5054B9847C02671
S1130450F60580256D02034CF561FA20A047FBE701
S1130460ED0000004902000070B500260C4D0D4C53
S1130470641BA410A64209D1002600F019F80A4D05
S11304800A4C641BA410A64205D170BDB300EB58FE
S113049098470136EEE7B300EB5898470136F2E788
S11304A0BC040000BC040000BC040000C004000044
S11304B0F8B5C046F8BC08BC9E467047B5000000BD
S11304C0F8B5C046F8BC08BC9E4670478D000000D5
S9030000FC
