S012000044464C4C5F34384D485A2E7372656336
S11300002020002025010000210100002101000022
S113001000000000000000000000000000000000DC
S113002000000000000000000000000021010000AA
S11300300000000000000000210100002101000078
S11300402101000021010000210100002101000024
S11300502101000021010000210100002101000014
S11300602101000021010000210100002101000004
S113007021010000210100002101000021010000F4
S113008021010000210100002101000021010000E4
S113009021010000210100002101000021010000D4
S11300A021010000210100002101000021010000C4
S11300B00000000010B5064C2378002B07D1054B37
S11300C0002B02D0044800E000BF0123237010BDC0
S11300D0000000200000000008050000084B10B5D7
S11300E0002B03D00749084800E000BF0748036815
S11300F0002B00D110BD064B002BFBD09847F9E72D
S113010000000000040000200805000008050000AD
S11301100000000010B5014B984710BD1D020000FF
S1130120FEE70000F8B52A4A2A4B9A4211D01A0079
S1130130294B9A420DD2294A03339B1A9B08013357
S11301409B000022234822498C58845004329A424E
S1130150FAD1234A234B9A420AD2D34321495B184A
S113016003218B4304339B18002102C29342FCD128
S11301701D4AFF211D4B8B439360FD3990235B0087
S11301801B4AD1501B4AD3780325AB430224234393
S1130190D370D3780C27BB4308263343D370164B54
S11301A0987B30229043202210439873997BB94363
S11301B0314399739A7BAA4322439A730F4A536833
S11301C080210B4353600E4B98470E4B9847FEE734
S11301D008050000000000200000002004000020AA
S11301E0000000202000002000ED00E000000000DE
S11301F000700041005000410048004100400041AF
S1130200A10400007D04000010B50248024B984789
S113021010BDC04610E000E05D02000010B50B4BBD
S11302209847C023DB058022D20594215A500C390B
S11302305A50074B20315A50064A5A5036315A5CAC
S1130240012082435A54044B984710BD9D0200007C
S113025000440041004000C00902000010B5024BF8
S11302601860024B984710BD1C00002015040000C4
S113027010B5044B1C68044B984701002000034B45
S1130280984710BD1C0000209102000029040000C2
S1130290014B58437047C0461CBB000010B5084AC8
S11302A0536802210B435360064B9847064B98470B
S11302B00820064CA047064B9847F720A04710BDDE
S11302C0004000411503000035030000D502000082
S11302D091030000C30709D50B4B802252009A609A
S11302E00A4A5A601A005378DB09FCD1030709D57E
S11302F0054B0422FF329A60054A5A601A0053786B
S1130300DB09FCD17047C046000C0040000709001F
S113031003050100064B1A7AD2B21A725A7AD2B283
S11303205A729A7AD2B29A72DA7AD2B2DA7270477E
S113033000040040124B134A9A821A6A196A12483E
S11303400240890F8907114801430A431A629A69D6
S113035002210A439A611A7F1D310A401A77190053
S11303600222CB681A42FCD005490822CB681A4203
S1130370FCD0034A136A80210B4313627047C046C2
S1130380000800402E0200000000FF0F02030000DE
S11303908622D2011A4B5A8002221A4B9A841900DF
S11303A00E32CB681A42FCD0174A164BDA62174B4E
S11303B01B689B0E3F2B1AD09B0280229200134392
S11303C0104A9362124B9384938C5B0712D51100ED
S11303D0D022CB681340D02BFBD1094A5378DB09D8
S11303E0FCD1084A936902218B4393617047FC2333
S11303F0DB01E5E703491022CB681A42FCD0ECE7A5
S1130400000C004000080040B8050104246080008E
S113041006080000024B034A5A6005221A6070471E
S113042010E000E0FFFFFF0070B50B0E5E1EF6B299
S1130430002B13D034000E4A0E4D8020400255602C
S1130440956013680342FCD0013CE4B2FF2CF6D162
S11304503306F61A084B9C4661447118044B5960E4
S113046099601900802252020B681342FCD070BDBF
S113047010E000E0FFFFFF00010000FFF8B5064BAD
S11304809847C027FF059C268025ED05034CBD51E8
S1130490FA20A047FBE7C0461501000071020000E6
S11304A070B500260C4D0D4C641BA410A64209D156
S11304B0002600F019F80A4D0A4C641BA410A64249
S11304C005D170BDB300EB5898470136EEE7B30091
S11304D0EB5898470136F2E7F4040000F4040000F6
S11304E0F4040000F8040000F8B5C046F8BC08BCE9
S11304F09E467047DD000000F8B5C046F8BC08BC55
S10B05009E467047B50000009F
S9030000FC
